:020000020000FC
:10000000FF27E3E3A080E6E39080E5E3A082E8E356
:10001000908242D0152F16D00095E1E40083162F70
:1000200011D00095E2E40083172F0CD00095E3E493
:100030000083182F07D00095E4E40083E0E40FE08C
:100040000083DECF103011F40FE30895113011F466
:1000500006E00895123011F40BE50895133011F401
:100060000FE40895143011F406E60895153011F4E4
:100070000DE60895163011F40DE70895173011F4C8
:1000800007E00895183011F40FE70895193011F4BE
:100090000FE6089509EF08950F93AF929F920BD04A
:1000A000502F09D0602F07D0702F05D0802F9F9040
:1000B000AF900F9108952F933F934F935F936F935A
:1000C0007F933FEF26EF41E050E060E070E0640F87
:1000D000751F920EA31E08F4FACF4FEF5FEF640F67
:1000E000751F30E02AE0920EA31E092DA72E962E32
:0E00F0007F916F915F914F913F912F910895F5
:00000001FF
