:020000020000FC
:1000000000E001C021C0F0E023E00AE010E0100FA2
:10001000110F110F010F020F102F120FE02F10837D
:10002000E0810083E08120831080121669F401E0F2
:100030001BE0F02FE12F2083F0810083E0812083FB
:100040002080221609F415C0F0E008E30095E1E4F1
:10005000008306E00095E2E4008307E70095E3E40F
:10006000008301E70095E4E40083E0E40FE000830F
:10007000C7CFF0E00DE60095E1E400830DE60095C2
:10008000E2E4008307E70095E3E4008303E70095DB
:0C009000E4E40083E0E40FE00083B2CF62
:00000001FF
