:020000020000FC
:1000000064E0FF27E3E3B080E6E3A080E5E3B082AD
:100010004ED0E8E3A0821A2D1F701FD0E1E40083C8
:100020001A2D169516951695169517D0E2E40083AD
:100030001B2D1F7012D0E3E400831B2D169516951F
:10004000169516950AD0E4E40083E0E4603109F4E3
:1000500061E06083660F2BD0D4CF103011F40FE332
:100060000895113011F406E00895123011F40BE5F3
:100070000895133011F40FE40895143011F406E6D6
:100080000895153011F40DE60895163011F40DE7BA
:100090000895173011F407E00895183011F40FE7B0
:1000A0000895193011F40FE6089509EF08952227F5
:0C00B00044274A95F1F72A95D9F70895E6
:00000001FF
