:020000020000FC
:100000000FEF0DBF01E00EBF000001E0FFEF0EEFAC
:10001000039503950FE7039501E00A950A9500E81B
:100020000A9501E011E0010F0FEF11E0010F08E068
:1000300018E0100F0FE711E0010F00E4000F000FB0
:1000400000E010E08894011F0894011F0EE011E009
:100050000894011F0EEF11E00894011F0EE711E054
:100060000894011F00E4001F001F01E011E0011BC4
:1000700000E111E0011B00E811E0011B01E012E0CA
:10008000011B01E0015000E101500EE7015001E0C9
:10009000025001E011E0011700E111E0011700E852
:1000A00011E0011701E012E0011701E0013000E169
:1000B00001300EE7013001E0023003C00000000013
:1000C00002C00000FCCF000008948894089420F03F
:1000D0000000889408F002C00894D8F300008894C7
:1000E00020F40000089408F402C08894D8F70000B7
:1000F00007E3102E212C222D102F0AEA00950095DF
:100100000AEA1FEF25E5012702270AEA1AEA25E590
:10011000012302230AEA0A7A05750AEA15E520E0B6
:10012000012B022B0AEA0565006002E006950695A0
:10013000069502E40595059502E8059505950BE7FA
:10014000002E0F924F9107E10F93AF9004C00F93D1
:1001500002E10F91089503D00AEAF9DF04C00F937A
:1001600005E50F91089503E70AEAE0E0F1E0008376
:0E017000108105E5EFEFF1E000831081000043
:00000001FF
